{
  "address": "0xCf7Ed3AccA5a467e9e704C703E8D87F634fB0Fc9",
  "abi": [
    {
      "inputs": [
        {
          "internalType": "address",
          "name": "vrfCoordinator",
          "type": "address"
        },
        {
          "internalType": "uint256",
          "name": "entranceFee",
          "type": "uint256"
        },
        {
          "internalType": "bytes32",
          "name": "gasLane",
          "type": "bytes32"
        },
        {
          "internalType": "uint64",
          "name": "subscriptionId",
          "type": "uint64"
        },
        {
          "internalType": "uint32",
          "name": "callbackGasLimit",
          "type": "uint32"
        },
        {
          "internalType": "uint256",
          "name": "interval",
          "type": "uint256"
        }
      ],
      "stateMutability": "nonpayable",
      "type": "constructor"
    },
    {
      "inputs": [
        {
          "internalType": "address",
          "name": "have",
          "type": "address"
        },
        {
          "internalType": "address",
          "name": "want",
          "type": "address"
        }
      ],
      "name": "OnlyCoordinatorCanFulfill",
      "type": "error"
    },
    {
      "inputs": [],
      "name": "Raffle__NotEnoughEntranceFee",
      "type": "error"
    },
    {
      "inputs": [],
      "name": "Raffle__NotOpened",
      "type": "error"
    },
    {
      "inputs": [],
      "name": "Raffle__TransferFailed",
      "type": "error"
    },
    {
      "inputs": [
        {
          "internalType": "uint256",
          "name": "balance",
          "type": "uint256"
        },
        {
          "internalType": "uint256",
          "name": "numPlayers",
          "type": "uint256"
        },
        {
          "internalType": "uint256",
          "name": "raffleState",
          "type": "uint256"
        }
      ],
      "name": "Raffle__UpkeepNotNeeded",
      "type": "error"
    },
    {
      "anonymous": false,
      "inputs": [
        {
          "indexed": true,
          "internalType": "address",
          "name": "owner",
          "type": "address"
        },
        {
          "indexed": true,
          "internalType": "address",
          "name": "approved",
          "type": "address"
        },
        {
          "indexed": true,
          "internalType": "uint256",
          "name": "tokenId",
          "type": "uint256"
        }
      ],
      "name": "Approval",
      "type": "event"
    },
    {
      "anonymous": false,
      "inputs": [
        {
          "indexed": true,
          "internalType": "address",
          "name": "owner",
          "type": "address"
        },
        {
          "indexed": true,
          "internalType": "address",
          "name": "operator",
          "type": "address"
        },
        {
          "indexed": false,
          "internalType": "bool",
          "name": "approved",
          "type": "bool"
        }
      ],
      "name": "ApprovalForAll",
      "type": "event"
    },
    {
      "anonymous": false,
      "inputs": [
        {
          "indexed": true,
          "internalType": "address",
          "name": "addr",
          "type": "address"
        }
      ],
      "name": "RaffleEntered",
      "type": "event"
    },
    {
      "anonymous": false,
      "inputs": [
        {
          "indexed": false,
          "internalType": "uint256",
          "name": "requestId",
          "type": "uint256"
        }
      ],
      "name": "RequestedRaffleWinner",
      "type": "event"
    },
    {
      "anonymous": false,
      "inputs": [
        {
          "indexed": true,
          "internalType": "address",
          "name": "from",
          "type": "address"
        },
        {
          "indexed": true,
          "internalType": "address",
          "name": "to",
          "type": "address"
        },
        {
          "indexed": true,
          "internalType": "uint256",
          "name": "tokenId",
          "type": "uint256"
        }
      ],
      "name": "Transfer",
      "type": "event"
    },
    {
      "anonymous": false,
      "inputs": [
        {
          "indexed": true,
          "internalType": "address",
          "name": "addr",
          "type": "address"
        }
      ],
      "name": "WinnerPicked",
      "type": "event"
    },
    {
      "inputs": [
        {
          "internalType": "address",
          "name": "to",
          "type": "address"
        },
        {
          "internalType": "uint256",
          "name": "tokenId",
          "type": "uint256"
        }
      ],
      "name": "approve",
      "outputs": [],
      "stateMutability": "nonpayable",
      "type": "function"
    },
    {
      "inputs": [
        {
          "internalType": "address",
          "name": "owner",
          "type": "address"
        }
      ],
      "name": "balanceOf",
      "outputs": [
        {
          "internalType": "uint256",
          "name": "",
          "type": "uint256"
        }
      ],
      "stateMutability": "view",
      "type": "function"
    },
    {
      "inputs": [
        {
          "internalType": "bytes",
          "name": "",
          "type": "bytes"
        }
      ],
      "name": "checkUpkeep",
      "outputs": [
        {
          "internalType": "bool",
          "name": "upkeepNeeded",
          "type": "bool"
        },
        {
          "internalType": "bytes",
          "name": "",
          "type": "bytes"
        }
      ],
      "stateMutability": "nonpayable",
      "type": "function"
    },
    {
      "inputs": [],
      "name": "enterRaffle",
      "outputs": [],
      "stateMutability": "payable",
      "type": "function"
    },
    {
      "inputs": [
        {
          "internalType": "uint256",
          "name": "tokenId",
          "type": "uint256"
        }
      ],
      "name": "getApproved",
      "outputs": [
        {
          "internalType": "address",
          "name": "",
          "type": "address"
        }
      ],
      "stateMutability": "view",
      "type": "function"
    },
    {
      "inputs": [],
      "name": "getEntranceFee",
      "outputs": [
        {
          "internalType": "uint256",
          "name": "",
          "type": "uint256"
        }
      ],
      "stateMutability": "view",
      "type": "function"
    },
    {
      "inputs": [],
      "name": "getInterval",
      "outputs": [
        {
          "internalType": "uint256",
          "name": "",
          "type": "uint256"
        }
      ],
      "stateMutability": "view",
      "type": "function"
    },
    {
      "inputs": [],
      "name": "getLatestTimestamp",
      "outputs": [
        {
          "internalType": "uint256",
          "name": "",
          "type": "uint256"
        }
      ],
      "stateMutability": "view",
      "type": "function"
    },
    {
      "inputs": [],
      "name": "getNumWords",
      "outputs": [
        {
          "internalType": "uint256",
          "name": "",
          "type": "uint256"
        }
      ],
      "stateMutability": "pure",
      "type": "function"
    },
    {
      "inputs": [],
      "name": "getNumberOfPlayers",
      "outputs": [
        {
          "internalType": "uint256",
          "name": "",
          "type": "uint256"
        }
      ],
      "stateMutability": "view",
      "type": "function"
    },
    {
      "inputs": [
        {
          "internalType": "uint16",
          "name": "index",
          "type": "uint16"
        }
      ],
      "name": "getPlayer",
      "outputs": [
        {
          "internalType": "address",
          "name": "",
          "type": "address"
        }
      ],
      "stateMutability": "view",
      "type": "function"
    },
    {
      "inputs": [],
      "name": "getRaffleState",
      "outputs": [
        {
          "internalType": "enum Raffle.RaffleState",
          "name": "",
          "type": "uint8"
        }
      ],
      "stateMutability": "view",
      "type": "function"
    },
    {
      "inputs": [],
      "name": "getRecentWinner",
      "outputs": [
        {
          "internalType": "address",
          "name": "",
          "type": "address"
        }
      ],
      "stateMutability": "view",
      "type": "function"
    },
    {
      "inputs": [],
      "name": "getRequestConfirmations",
      "outputs": [
        {
          "internalType": "uint256",
          "name": "",
          "type": "uint256"
        }
      ],
      "stateMutability": "pure",
      "type": "function"
    },
    {
      "inputs": [],
      "name": "getTestName",
      "outputs": [
        {
          "internalType": "string",
          "name": "",
          "type": "string"
        }
      ],
      "stateMutability": "pure",
      "type": "function"
    },
    {
      "inputs": [
        {
          "internalType": "address",
          "name": "owner",
          "type": "address"
        },
        {
          "internalType": "address",
          "name": "operator",
          "type": "address"
        }
      ],
      "name": "isApprovedForAll",
      "outputs": [
        {
          "internalType": "bool",
          "name": "",
          "type": "bool"
        }
      ],
      "stateMutability": "view",
      "type": "function"
    },
    {
      "inputs": [],
      "name": "name",
      "outputs": [
        {
          "internalType": "string",
          "name": "",
          "type": "string"
        }
      ],
      "stateMutability": "view",
      "type": "function"
    },
    {
      "inputs": [
        {
          "internalType": "uint256",
          "name": "tokenId",
          "type": "uint256"
        }
      ],
      "name": "ownerOf",
      "outputs": [
        {
          "internalType": "address",
          "name": "",
          "type": "address"
        }
      ],
      "stateMutability": "view",
      "type": "function"
    },
    {
      "inputs": [
        {
          "internalType": "bytes",
          "name": "",
          "type": "bytes"
        }
      ],
      "name": "performUpkeep",
      "outputs": [],
      "stateMutability": "nonpayable",
      "type": "function"
    },
    {
      "inputs": [
        {
          "internalType": "uint256",
          "name": "requestId",
          "type": "uint256"
        },
        {
          "internalType": "uint256[]",
          "name": "randomWords",
          "type": "uint256[]"
        }
      ],
      "name": "rawFulfillRandomWords",
      "outputs": [],
      "stateMutability": "nonpayable",
      "type": "function"
    },
    {
      "inputs": [
        {
          "internalType": "address",
          "name": "from",
          "type": "address"
        },
        {
          "internalType": "address",
          "name": "to",
          "type": "address"
        },
        {
          "internalType": "uint256",
          "name": "tokenId",
          "type": "uint256"
        }
      ],
      "name": "safeTransferFrom",
      "outputs": [],
      "stateMutability": "nonpayable",
      "type": "function"
    },
    {
      "inputs": [
        {
          "internalType": "address",
          "name": "from",
          "type": "address"
        },
        {
          "internalType": "address",
          "name": "to",
          "type": "address"
        },
        {
          "internalType": "uint256",
          "name": "tokenId",
          "type": "uint256"
        },
        {
          "internalType": "bytes",
          "name": "data",
          "type": "bytes"
        }
      ],
      "name": "safeTransferFrom",
      "outputs": [],
      "stateMutability": "nonpayable",
      "type": "function"
    },
    {
      "inputs": [
        {
          "internalType": "address",
          "name": "operator",
          "type": "address"
        },
        {
          "internalType": "bool",
          "name": "approved",
          "type": "bool"
        }
      ],
      "name": "setApprovalForAll",
      "outputs": [],
      "stateMutability": "nonpayable",
      "type": "function"
    },
    {
      "inputs": [
        {
          "internalType": "bytes4",
          "name": "interfaceId",
          "type": "bytes4"
        }
      ],
      "name": "supportsInterface",
      "outputs": [
        {
          "internalType": "bool",
          "name": "",
          "type": "bool"
        }
      ],
      "stateMutability": "view",
      "type": "function"
    },
    {
      "inputs": [],
      "name": "symbol",
      "outputs": [
        {
          "internalType": "string",
          "name": "",
          "type": "string"
        }
      ],
      "stateMutability": "view",
      "type": "function"
    },
    {
      "inputs": [
        {
          "internalType": "uint256",
          "name": "",
          "type": "uint256"
        }
      ],
      "name": "tokenURI",
      "outputs": [
        {
          "internalType": "string",
          "name": "",
          "type": "string"
        }
      ],
      "stateMutability": "pure",
      "type": "function"
    },
    {
      "inputs": [
        {
          "internalType": "address",
          "name": "from",
          "type": "address"
        },
        {
          "internalType": "address",
          "name": "to",
          "type": "address"
        },
        {
          "internalType": "uint256",
          "name": "tokenId",
          "type": "uint256"
        }
      ],
      "name": "transferFrom",
      "outputs": [],
      "stateMutability": "nonpayable",
      "type": "function"
    }
  ],
  "transactionHash": "0xb5af742fc33a97b22d5e0a2c2a8eff69812b581d6d9bb2723cf98b01712b0be6",
  "args": [
    "0x5FbDB2315678afecb367f032d93F642f64180aa3",
    "10000000000000000",
    "0xd89b2bf150e3b9e13446986e571fb9cab24b13cea0a43ea20a6049a85cc807cc",
    "1",
    "500000",
    "30"
  ],
  "numDeployments": 1,
  "solcInputHash": "fb8570310c1827722ae3fdb4a8fc4dd7",
  "bytecode": "0x6101406040523480156200001257600080fd5b50604051620037403803806200374083398181016040528101906200003891906200031f565b6040518060400160405280600981526020017f53616d706c654e667400000000000000000000000000000000000000000000008152506040518060400160405280600381526020017f534e540000000000000000000000000000000000000000000000000000000000815250878073ffffffffffffffffffffffffffffffffffffffff1660808173ffffffffffffffffffffffffffffffffffffffff1660601b81525050508160009080519060200190620000f5929190620001fc565b5080600190805190602001906200010e929190620001fc565b5050508460c081815250508573ffffffffffffffffffffffffffffffffffffffff1660a08173ffffffffffffffffffffffffffffffffffffffff1660601b815250508360e081815250508267ffffffffffffffff166101008167ffffffffffffffff1660c01b815250508163ffffffff166101208163ffffffff1660e01b81525050806009819055506000600a60006101000a81548160ff02191690836001811115620001e4577f4e487b7100000000000000000000000000000000000000000000000000000000600052602160045260246000fd5b02179055504260088190555050505050505062000508565b8280546200020a9062000421565b90600052602060002090601f0160209004810192826200022e57600085556200027a565b82601f106200024957805160ff19168380011785556200027a565b828001600101855582156200027a579182015b82811115620002795782518255916020019190600101906200025c565b5b5090506200028991906200028d565b5090565b5b80821115620002a85760008160009055506001016200028e565b5090565b600081519050620002bd8162000486565b92915050565b600081519050620002d481620004a0565b92915050565b600081519050620002eb81620004ba565b92915050565b6000815190506200030281620004d4565b92915050565b6000815190506200031981620004ee565b92915050565b60008060008060008060c087890312156200033957600080fd5b60006200034989828a01620002ac565b96505060206200035c89828a01620002da565b95505060406200036f89828a01620002c3565b94505060606200038289828a0162000308565b93505060806200039589828a01620002f1565b92505060a0620003a889828a01620002da565b9150509295509295509295565b6000620003c282620003d3565b9050919050565b6000819050919050565b600073ffffffffffffffffffffffffffffffffffffffff82169050919050565b6000819050919050565b600063ffffffff82169050919050565b600067ffffffffffffffff82169050919050565b600060028204905060018216806200043a57607f821691505b6020821081141562000451576200045062000457565b5b50919050565b7f4e487b7100000000000000000000000000000000000000000000000000000000600052602260045260246000fd5b6200049181620003b5565b81146200049d57600080fd5b50565b620004ab81620003c9565b8114620004b757600080fd5b50565b620004c581620003f3565b8114620004d157600080fd5b50565b620004df81620003fd565b8114620004eb57600080fd5b50565b620004f9816200040d565b81146200050557600080fd5b50565b60805160601c60a05160601c60c05160e0516101005160c01c6101205160e01c6131ce620005726000396000610e1c01526000610df901526000610dd80152600081816109620152610abf01526000610d9c01526000818161099f01526109f301526131ce6000f3fe60806040526004361061019c5760003560e01c806358bee3db116100ec578063a22cb4651161008a578063e985e9c511610064578063e985e9c5146105bc578063f43b52cb146105f9578063fc8865b114610624578063fd6673f5146106615761019c565b8063a22cb4651461052d578063b88d4fde14610556578063c87b56dd1461057f5761019c565b80636e04ff0d116100c65780636e04ff0d1461045c57806370a082311461049a57806391ad27b4146104d757806395d89b41146105025761019c565b806358bee3db146103c95780635f1b0fd8146103f45780636352211e1461041f5761019c565b80631fe543e31161015957806342842e0e1161013357806342842e0e146103215780634585e33b1461034a578063473f1ddc1461037357806353a2c19a1461039e5761019c565b80631fe543e3146102c557806323b872dd146102ee5780632cfcc539146103175761019c565b806301ffc9a7146101a157806306fdde03146101de578063081812fc14610209578063095ea7b31461024657806309bc33a71461026f578063115cbaf51461029a575b600080fd5b3480156101ad57600080fd5b506101c860048036038101906101c39190612366565b61068c565b6040516101d59190612809565b60405180910390f35b3480156101ea57600080fd5b506101f361076e565b60405161020091906128c2565b60405180910390f35b34801561021557600080fd5b50610230600480360381019061022b9190612467565b610800565b60405161023d9190612779565b60405180910390f35b34801561025257600080fd5b5061026d6004803603810190610268919061232a565b610846565b005b34801561027b57600080fd5b5061028461095e565b6040516102919190612a04565b60405180910390f35b3480156102a657600080fd5b506102af610986565b6040516102bc91906128a7565b60405180910390f35b3480156102d157600080fd5b506102ec60048036038101906102e791906124b9565b61099d565b005b3480156102fa57600080fd5b5061031560048036038101906103109190612224565b610a5d565b005b61031f610abd565b005b34801561032d57600080fd5b5061034860048036038101906103439190612224565b610c78565b005b34801561035657600080fd5b50610371600480360381019061036c91906123b8565b610c98565b005b34801561037f57600080fd5b50610388610eee565b6040516103959190612779565b60405180910390f35b3480156103aa57600080fd5b506103b3610f18565b6040516103c09190612a04565b60405180910390f35b3480156103d557600080fd5b506103de610f25565b6040516103eb91906128c2565b60405180910390f35b34801561040057600080fd5b50610409610f62565b6040516104169190612a04565b60405180910390f35b34801561042b57600080fd5b5061044660048036038101906104419190612467565b610f6f565b6040516104539190612779565b60405180910390f35b34801561046857600080fd5b50610483600480360381019061047e91906123fd565b611021565b604051610491929190612824565b60405180910390f35b3480156104a657600080fd5b506104c160048036038101906104bc91906121bf565b6110fc565b6040516104ce9190612a04565b60405180910390f35b3480156104e357600080fd5b506104ec6111b4565b6040516104f99190612a04565b60405180910390f35b34801561050e57600080fd5b506105176111be565b60405161052491906128c2565b60405180910390f35b34801561053957600080fd5b50610554600480360381019061054f91906122ee565b611250565b005b34801561056257600080fd5b5061057d60048036038101906105789190612273565b611266565b005b34801561058b57600080fd5b506105a660048036038101906105a19190612467565b6112c8565b6040516105b391906128c2565b60405180910390f35b3480156105c857600080fd5b506105e360048036038101906105de91906121e8565b6112ea565b6040516105f09190612809565b60405180910390f35b34801561060557600080fd5b5061060e61137e565b60405161061b9190612a04565b60405180910390f35b34801561063057600080fd5b5061064b6004803603810190610646919061243e565b611388565b6040516106589190612779565b60405180910390f35b34801561066d57600080fd5b506106766113fa565b6040516106839190612a04565b60405180910390f35b60007f80ac58cd000000000000000000000000000000000000000000000000000000007bffffffffffffffffffffffffffffffffffffffffffffffffffffffff1916827bffffffffffffffffffffffffffffffffffffffffffffffffffffffff1916148061075757507f5b5e139f000000000000000000000000000000000000000000000000000000007bffffffffffffffffffffffffffffffffffffffffffffffffffffffff1916827bffffffffffffffffffffffffffffffffffffffffffffffffffffffff1916145b80610767575061076682611407565b5b9050919050565b60606000805461077d90612cce565b80601f01602080910402602001604051908101604052809291908181526020018280546107a990612cce565b80156107f65780601f106107cb576101008083540402835291602001916107f6565b820191906000526020600020905b8154815290600101906020018083116107d957829003601f168201915b5050505050905090565b600061080b82611471565b6004600083815260200190815260200160002060009054906101000a900473ffffffffffffffffffffffffffffffffffffffff169050919050565b600061085182610f6f565b90508073ffffffffffffffffffffffffffffffffffffffff168373ffffffffffffffffffffffffffffffffffffffff1614156108c2576040517f08c379a00000000000000000000000000000000000000000000000000000000081526004016108b9906129c4565b60405180910390fd5b8073ffffffffffffffffffffffffffffffffffffffff166108e16114bc565b73ffffffffffffffffffffffffffffffffffffffff161480610910575061090f8161090a6114bc565b6112ea565b5b61094f576040517f08c379a000000000000000000000000000000000000000000000000000000000815260040161094690612984565b60405180910390fd5b61095983836114c4565b505050565b60007f0000000000000000000000000000000000000000000000000000000000000000905090565b6000600a60009054906101000a900460ff16905090565b7f000000000000000000000000000000000000000000000000000000000000000073ffffffffffffffffffffffffffffffffffffffff163373ffffffffffffffffffffffffffffffffffffffff1614610a4f57337f00000000000000000000000000000000000000000000000000000000000000006040517f1cf993f4000000000000000000000000000000000000000000000000000000008152600401610a46929190612794565b60405180910390fd5b610a59828261157d565b5050565b610a6e610a686114bc565b82611848565b610aad576040517f08c379a0000000000000000000000000000000000000000000000000000000008152600401610aa4906129e4565b60405180910390fd5b610ab88383836118dd565b505050565b7f0000000000000000000000000000000000000000000000000000000000000000341015610b17576040517f4879370a00000000000000000000000000000000000000000000000000000000815260040160405180910390fd5b60006001811115610b51577f4e487b7100000000000000000000000000000000000000000000000000000000600052602160045260246000fd5b600a60009054906101000a900460ff166001811115610b99577f4e487b7100000000000000000000000000000000000000000000000000000000600052602160045260246000fd5b14610bd0576040517f21025eb500000000000000000000000000000000000000000000000000000000815260040160405180910390fd5b6006339080600181540180825580915050600190039060005260206000200160009091909190916101000a81548173ffffffffffffffffffffffffffffffffffffffff021916908373ffffffffffffffffffffffffffffffffffffffff1602179055503373ffffffffffffffffffffffffffffffffffffffff167f634f3211e3a4e43fee5a21ad9f87ca153b300fc78b1c557a2057dbe9c63bcb4760405160405180910390a2565b610c9383838360405180602001604052806000815250611266565b505050565b6000610cb260405180602001604052806000815250611021565b50905080610d475747600680549050600a60009054906101000a900460ff166001811115610d09577f4e487b7100000000000000000000000000000000000000000000000000000000600052602160045260246000fd5b6040517f584327aa000000000000000000000000000000000000000000000000000000008152600401610d3e93929190612a1f565b60405180910390fd5b6001600a60006101000a81548160ff02191690836001811115610d93577f4e487b7100000000000000000000000000000000000000000000000000000000600052602160045260246000fd5b021790555060007f000000000000000000000000000000000000000000000000000000000000000073ffffffffffffffffffffffffffffffffffffffff16635d3b1d307f00000000000000000000000000000000000000000000000000000000000000007f000000000000000000000000000000000000000000000000000000000000000060037f000000000000000000000000000000000000000000000000000000000000000060016040518663ffffffff1660e01b8152600401610e5d959493929190612854565b602060405180830381600087803b158015610e7757600080fd5b505af1158015610e8b573d6000803e3d6000fd5b505050506040513d601f19601f82011682018060405250810190610eaf9190612490565b90507fcd6e45c8998311cab7e9d4385596cac867e20a0587194b954fa3a731c93ce78b81604051610ee09190612a04565b60405180910390a150505050565b6000600760009054906101000a900473ffffffffffffffffffffffffffffffffffffffff16905090565b6000600161ffff16905090565b60606040518060400160405280601181526020017f4d79206e616d6520697320526166666c65000000000000000000000000000000815250905090565b6000600361ffff16905090565b6000806002600084815260200190815260200160002060009054906101000a900473ffffffffffffffffffffffffffffffffffffffff169050600073ffffffffffffffffffffffffffffffffffffffff168173ffffffffffffffffffffffffffffffffffffffff161415611018576040517f08c379a000000000000000000000000000000000000000000000000000000000815260040161100f906129a4565b60405180910390fd5b80915050919050565b600060606000600a60009054906101000a900460ff16600181111561106f577f4e487b7100000000000000000000000000000000000000000000000000000000600052602160045260246000fd5b600060018111156110a9577f4e487b7100000000000000000000000000000000000000000000000000000000600052602160045260246000fd5b149050600080471190506000806006805490501190506000600954600854426110d29190612b71565b1190508380156110df5750825b80156110e85750815b80156110f15750805b955050505050915091565b60008073ffffffffffffffffffffffffffffffffffffffff168273ffffffffffffffffffffffffffffffffffffffff16141561116d576040517f08c379a000000000000000000000000000000000000000000000000000000000815260040161116490612964565b60405180910390fd5b600360008373ffffffffffffffffffffffffffffffffffffffff1673ffffffffffffffffffffffffffffffffffffffff168152602001908152602001600020549050919050565b6000600954905090565b6060600180546111cd90612cce565b80601f01602080910402602001604051908101604052809291908181526020018280546111f990612cce565b80156112465780601f1061121b57610100808354040283529160200191611246565b820191906000526020600020905b81548152906001019060200180831161122957829003601f168201915b5050505050905090565b61126261125b6114bc565b8383611b44565b5050565b6112776112716114bc565b83611848565b6112b6576040517f08c379a00000000000000000000000000000000000000000000000000000000081526004016112ad906129e4565b60405180910390fd5b6112c284848484611cb1565b50505050565b6060604051806060016040528060358152602001613164603591399050919050565b6000600560008473ffffffffffffffffffffffffffffffffffffffff1673ffffffffffffffffffffffffffffffffffffffff16815260200190815260200160002060008373ffffffffffffffffffffffffffffffffffffffff1673ffffffffffffffffffffffffffffffffffffffff16815260200190815260200160002060009054906101000a900460ff16905092915050565b6000600854905090565b600060068261ffff16815481106113c8577f4e487b7100000000000000000000000000000000000000000000000000000000600052603260045260246000fd5b9060005260206000200160009054906101000a900473ffffffffffffffffffffffffffffffffffffffff169050919050565b6000600680549050905090565b60007f01ffc9a7000000000000000000000000000000000000000000000000000000007bffffffffffffffffffffffffffffffffffffffffffffffffffffffff1916827bffffffffffffffffffffffffffffffffffffffffffffffffffffffff1916149050919050565b61147a81611d0d565b6114b9576040517f08c379a00000000000000000000000000000000000000000000000000000000081526004016114b0906129a4565b60405180910390fd5b50565b600033905090565b816004600083815260200190815260200160002060006101000a81548173ffffffffffffffffffffffffffffffffffffffff021916908373ffffffffffffffffffffffffffffffffffffffff160217905550808273ffffffffffffffffffffffffffffffffffffffff1661153783610f6f565b73ffffffffffffffffffffffffffffffffffffffff167f8c5be1e5ebec7d5bd14f71427d1e84f3dd0314c0f7b2291e5b200ac8c7c3b92560405160405180910390a45050565b6000600680549050826000815181106115bf577f4e487b7100000000000000000000000000000000000000000000000000000000600052603260045260246000fd5b60200260200101516115d19190612d31565b905060006006828154811061160f577f4e487b7100000000000000000000000000000000000000000000000000000000600052603260045260246000fd5b9060005260206000200160009054906101000a900473ffffffffffffffffffffffffffffffffffffffff16905080600760006101000a81548173ffffffffffffffffffffffffffffffffffffffff021916908373ffffffffffffffffffffffffffffffffffffffff1602179055506000600a60006101000a81548160ff021916908360018111156116c9577f4e487b7100000000000000000000000000000000000000000000000000000000600052602160045260246000fd5b021790555042600881905550600067ffffffffffffffff811115611716577f4e487b7100000000000000000000000000000000000000000000000000000000600052604160045260246000fd5b6040519080825280602002602001820160405280156117445781602001602082028036833780820191505090505b506006908051906020019061175a929190611f3d565b5060008173ffffffffffffffffffffffffffffffffffffffff164760405161178190612764565b60006040518083038185875af1925050503d80600081146117be576040519150601f19603f3d011682016040523d82523d6000602084013e6117c3565b606091505b50509050806117fe576040517fa1d04b3900000000000000000000000000000000000000000000000000000000815260040160405180910390fd5b8173ffffffffffffffffffffffffffffffffffffffff167f5b690ec4a06fe979403046eaeea5b3ce38524683c3001f662c8b5a829632f7df60405160405180910390a25050505050565b60008061185483610f6f565b90508073ffffffffffffffffffffffffffffffffffffffff168473ffffffffffffffffffffffffffffffffffffffff161480611896575061189581856112ea565b5b806118d457508373ffffffffffffffffffffffffffffffffffffffff166118bc84610800565b73ffffffffffffffffffffffffffffffffffffffff16145b91505092915050565b8273ffffffffffffffffffffffffffffffffffffffff166118fd82610f6f565b73ffffffffffffffffffffffffffffffffffffffff1614611953576040517f08c379a000000000000000000000000000000000000000000000000000000000815260040161194a90612904565b60405180910390fd5b600073ffffffffffffffffffffffffffffffffffffffff168273ffffffffffffffffffffffffffffffffffffffff1614156119c3576040517f08c379a00000000000000000000000000000000000000000000000000000000081526004016119ba90612924565b60405180910390fd5b6119ce838383611d79565b6119d96000826114c4565b6001600360008573ffffffffffffffffffffffffffffffffffffffff1673ffffffffffffffffffffffffffffffffffffffff1681526020019081526020016000206000828254611a299190612b71565b925050819055506001600360008473ffffffffffffffffffffffffffffffffffffffff1673ffffffffffffffffffffffffffffffffffffffff1681526020019081526020016000206000828254611a809190612b1b565b92505081905550816002600083815260200190815260200160002060006101000a81548173ffffffffffffffffffffffffffffffffffffffff021916908373ffffffffffffffffffffffffffffffffffffffff160217905550808273ffffffffffffffffffffffffffffffffffffffff168473ffffffffffffffffffffffffffffffffffffffff167fddf252ad1be2c89b69c2b068fc378daa952ba7f163c4a11628f55a4df523b3ef60405160405180910390a4611b3f838383611d7e565b505050565b8173ffffffffffffffffffffffffffffffffffffffff168373ffffffffffffffffffffffffffffffffffffffff161415611bb3576040517f08c379a0000000000000000000000000000000000000000000000000000000008152600401611baa90612944565b60405180910390fd5b80600560008573ffffffffffffffffffffffffffffffffffffffff1673ffffffffffffffffffffffffffffffffffffffff16815260200190815260200160002060008473ffffffffffffffffffffffffffffffffffffffff1673ffffffffffffffffffffffffffffffffffffffff16815260200190815260200160002060006101000a81548160ff0219169083151502179055508173ffffffffffffffffffffffffffffffffffffffff168373ffffffffffffffffffffffffffffffffffffffff167f17307eab39ab6107e8899845ad3d59bd9653f200f220920489ca2b5937696c3183604051611ca49190612809565b60405180910390a3505050565b611cbc8484846118dd565b611cc884848484611d83565b611d07576040517f08c379a0000000000000000000000000000000000000000000000000000000008152600401611cfe906128e4565b60405180910390fd5b50505050565b60008073ffffffffffffffffffffffffffffffffffffffff166002600084815260200190815260200160002060009054906101000a900473ffffffffffffffffffffffffffffffffffffffff1673ffffffffffffffffffffffffffffffffffffffff1614159050919050565b505050565b505050565b6000611da48473ffffffffffffffffffffffffffffffffffffffff16611f1a565b15611f0d578373ffffffffffffffffffffffffffffffffffffffff1663150b7a02611dcd6114bc565b8786866040518563ffffffff1660e01b8152600401611def94939291906127bd565b602060405180830381600087803b158015611e0957600080fd5b505af1925050508015611e3a57506040513d601f19601f82011682018060405250810190611e37919061238f565b60015b611ebd573d8060008114611e6a576040519150601f19603f3d011682016040523d82523d6000602084013e611e6f565b606091505b50600081511415611eb5576040517f08c379a0000000000000000000000000000000000000000000000000000000008152600401611eac906128e4565b60405180910390fd5b805181602001fd5b63150b7a0260e01b7bffffffffffffffffffffffffffffffffffffffffffffffffffffffff1916817bffffffffffffffffffffffffffffffffffffffffffffffffffffffff191614915050611f12565b600190505b949350505050565b6000808273ffffffffffffffffffffffffffffffffffffffff163b119050919050565b828054828255906000526020600020908101928215611fb6579160200282015b82811115611fb55782518260006101000a81548173ffffffffffffffffffffffffffffffffffffffff021916908373ffffffffffffffffffffffffffffffffffffffff16021790555091602001919060010190611f5d565b5b509050611fc39190611fc7565b5090565b5b80821115611fe0576000816000905550600101611fc8565b5090565b6000611ff7611ff284612a7b565b612a56565b9050808382526020820190508285602086028201111561201657600080fd5b60005b85811015612046578161202c8882612195565b845260208401935060208301925050600181019050612019565b5050509392505050565b600061206361205e84612aa7565b612a56565b90508281526020810184848401111561207b57600080fd5b612086848285612c8c565b509392505050565b60008135905061209d816130f0565b92915050565b600082601f8301126120b457600080fd5b81356120c4848260208601611fe4565b91505092915050565b6000813590506120dc81613107565b92915050565b6000813590506120f18161311e565b92915050565b6000815190506121068161311e565b92915050565b60008083601f84011261211e57600080fd5b8235905067ffffffffffffffff81111561213757600080fd5b60208301915083600182028301111561214f57600080fd5b9250929050565b600082601f83011261216757600080fd5b8135612177848260208601612050565b91505092915050565b60008135905061218f81613135565b92915050565b6000813590506121a48161314c565b92915050565b6000815190506121b98161314c565b92915050565b6000602082840312156121d157600080fd5b60006121df8482850161208e565b91505092915050565b600080604083850312156121fb57600080fd5b60006122098582860161208e565b925050602061221a8582860161208e565b9150509250929050565b60008060006060848603121561223957600080fd5b60006122478682870161208e565b93505060206122588682870161208e565b925050604061226986828701612195565b9150509250925092565b6000806000806080858703121561228957600080fd5b60006122978782880161208e565b94505060206122a88782880161208e565b93505060406122b987828801612195565b925050606085013567ffffffffffffffff8111156122d657600080fd5b6122e287828801612156565b91505092959194509250565b6000806040838503121561230157600080fd5b600061230f8582860161208e565b9250506020612320858286016120cd565b9150509250929050565b6000806040838503121561233d57600080fd5b600061234b8582860161208e565b925050602061235c85828601612195565b9150509250929050565b60006020828403121561237857600080fd5b6000612386848285016120e2565b91505092915050565b6000602082840312156123a157600080fd5b60006123af848285016120f7565b91505092915050565b600080602083850312156123cb57600080fd5b600083013567ffffffffffffffff8111156123e557600080fd5b6123f18582860161210c565b92509250509250929050565b60006020828403121561240f57600080fd5b600082013567ffffffffffffffff81111561242957600080fd5b61243584828501612156565b91505092915050565b60006020828403121561245057600080fd5b600061245e84828501612180565b91505092915050565b60006020828403121561247957600080fd5b600061248784828501612195565b91505092915050565b6000602082840312156124a257600080fd5b60006124b0848285016121aa565b91505092915050565b600080604083850312156124cc57600080fd5b60006124da85828601612195565b925050602083013567ffffffffffffffff8111156124f757600080fd5b612503858286016120a3565b9150509250929050565b61251681612ba5565b82525050565b61252581612bb7565b82525050565b61253481612bc3565b82525050565b600061254582612ad8565b61254f8185612aee565b935061255f818560208601612c9b565b61256881612e4d565b840191505092915050565b61257c81612c68565b82525050565b600061258d82612ae3565b6125978185612b0a565b93506125a7818560208601612c9b565b6125b081612e4d565b840191505092915050565b60006125c8603283612b0a565b91506125d382612e5e565b604082019050919050565b60006125eb602583612b0a565b91506125f682612ead565b604082019050919050565b600061260e602483612b0a565b915061261982612efc565b604082019050919050565b6000612631601983612b0a565b915061263c82612f4b565b602082019050919050565b6000612654602983612b0a565b915061265f82612f74565b604082019050919050565b6000612677603e83612b0a565b915061268282612fc3565b604082019050919050565b600061269a601883612b0a565b91506126a582613012565b602082019050919050565b60006126bd602183612b0a565b91506126c88261303b565b604082019050919050565b60006126e0600083612aff565b91506126eb8261308a565b600082019050919050565b6000612703602e83612b0a565b915061270e8261308d565b604082019050919050565b61272281612c0c565b82525050565b61273181612c7a565b82525050565b61274081612c3a565b82525050565b61274f81612c44565b82525050565b61275e81612c54565b82525050565b600061276f826126d3565b9150819050919050565b600060208201905061278e600083018461250d565b92915050565b60006040820190506127a9600083018561250d565b6127b6602083018461250d565b9392505050565b60006080820190506127d2600083018761250d565b6127df602083018661250d565b6127ec6040830185612737565b81810360608301526127fe818461253a565b905095945050505050565b600060208201905061281e600083018461251c565b92915050565b6000604082019050612839600083018561251c565b818103602083015261284b818461253a565b90509392505050565b600060a082019050612869600083018861252b565b6128766020830187612755565b6128836040830186612719565b6128906060830185612746565b61289d6080830184612728565b9695505050505050565b60006020820190506128bc6000830184612573565b92915050565b600060208201905081810360008301526128dc8184612582565b905092915050565b600060208201905081810360008301526128fd816125bb565b9050919050565b6000602082019050818103600083015261291d816125de565b9050919050565b6000602082019050818103600083015261293d81612601565b9050919050565b6000602082019050818103600083015261295d81612624565b9050919050565b6000602082019050818103600083015261297d81612647565b9050919050565b6000602082019050818103600083015261299d8161266a565b9050919050565b600060208201905081810360008301526129bd8161268d565b9050919050565b600060208201905081810360008301526129dd816126b0565b9050919050565b600060208201905081810360008301526129fd816126f6565b9050919050565b6000602082019050612a196000830184612737565b92915050565b6000606082019050612a346000830186612737565b612a416020830185612737565b612a4e6040830184612737565b949350505050565b6000612a60612a71565b9050612a6c8282612d00565b919050565b6000604051905090565b600067ffffffffffffffff821115612a9657612a95612e1e565b5b602082029050602081019050919050565b600067ffffffffffffffff821115612ac257612ac1612e1e565b5b612acb82612e4d565b9050602081019050919050565b600081519050919050565b600081519050919050565b600082825260208201905092915050565b600081905092915050565b600082825260208201905092915050565b6000612b2682612c3a565b9150612b3183612c3a565b9250827fffffffffffffffffffffffffffffffffffffffffffffffffffffffffffffffff03821115612b6657612b65612d62565b5b828201905092915050565b6000612b7c82612c3a565b9150612b8783612c3a565b925082821015612b9a57612b99612d62565b5b828203905092915050565b6000612bb082612c1a565b9050919050565b60008115159050919050565b6000819050919050565b60007fffffffff0000000000000000000000000000000000000000000000000000000082169050919050565b6000819050612c07826130dc565b919050565b600061ffff82169050919050565b600073ffffffffffffffffffffffffffffffffffffffff82169050919050565b6000819050919050565b600063ffffffff82169050919050565b600067ffffffffffffffff82169050919050565b6000612c7382612bf9565b9050919050565b6000612c8582612c0c565b9050919050565b82818337600083830152505050565b60005b83811015612cb9578082015181840152602081019050612c9e565b83811115612cc8576000848401525b50505050565b60006002820490506001821680612ce657607f821691505b60208210811415612cfa57612cf9612def565b5b50919050565b612d0982612e4d565b810181811067ffffffffffffffff82111715612d2857612d27612e1e565b5b80604052505050565b6000612d3c82612c3a565b9150612d4783612c3a565b925082612d5757612d56612d91565b5b828206905092915050565b7f4e487b7100000000000000000000000000000000000000000000000000000000600052601160045260246000fd5b7f4e487b7100000000000000000000000000000000000000000000000000000000600052601260045260246000fd5b7f4e487b7100000000000000000000000000000000000000000000000000000000600052602160045260246000fd5b7f4e487b7100000000000000000000000000000000000000000000000000000000600052602260045260246000fd5b7f4e487b7100000000000000000000000000000000000000000000000000000000600052604160045260246000fd5b6000601f19601f8301169050919050565b7f4552433732313a207472616e7366657220746f206e6f6e20455243373231526560008201527f63656976657220696d706c656d656e7465720000000000000000000000000000602082015250565b7f4552433732313a207472616e736665722066726f6d20696e636f72726563742060008201527f6f776e6572000000000000000000000000000000000000000000000000000000602082015250565b7f4552433732313a207472616e7366657220746f20746865207a65726f2061646460008201527f7265737300000000000000000000000000000000000000000000000000000000602082015250565b7f4552433732313a20617070726f766520746f2063616c6c657200000000000000600082015250565b7f4552433732313a2061646472657373207a65726f206973206e6f74206120766160008201527f6c6964206f776e65720000000000000000000000000000000000000000000000602082015250565b7f4552433732313a20617070726f76652063616c6c6572206973206e6f7420746f60008201527f6b656e206f776e6572206e6f7220617070726f76656420666f7220616c6c0000602082015250565b7f4552433732313a20696e76616c696420746f6b656e2049440000000000000000600082015250565b7f4552433732313a20617070726f76616c20746f2063757272656e74206f776e6560008201527f7200000000000000000000000000000000000000000000000000000000000000602082015250565b50565b7f4552433732313a2063616c6c6572206973206e6f7420746f6b656e206f776e6560008201527f72206e6f7220617070726f766564000000000000000000000000000000000000602082015250565b600281106130ed576130ec612dc0565b5b50565b6130f981612ba5565b811461310457600080fd5b50565b61311081612bb7565b811461311b57600080fd5b50565b61312781612bcd565b811461313257600080fd5b50565b61313e81612c0c565b811461314957600080fd5b50565b61315581612c3a565b811461316057600080fd5b5056fe697066733a2f2f516d64774a323376567474726f31744c3167616974516b367967573864684e5961774d5574667650504231774174a26469706673582212209c9b395a760477874e95af7558215fa93200194faaeb4cffe0b86d2005dc36ec64736f6c63430008040033",
  "devdoc": {
    "kind": "dev",
    "methods": {
      "approve(address,uint256)": {
        "details": "See {IERC721-approve}."
      },
      "balanceOf(address)": {
        "details": "See {IERC721-balanceOf}."
      },
      "getApproved(uint256)": {
        "details": "See {IERC721-getApproved}."
      },
      "isApprovedForAll(address,address)": {
        "details": "See {IERC721-isApprovedForAll}."
      },
      "name()": {
        "details": "See {IERC721Metadata-name}."
      },
      "ownerOf(uint256)": {
        "details": "See {IERC721-ownerOf}."
      },
      "safeTransferFrom(address,address,uint256)": {
        "details": "See {IERC721-safeTransferFrom}."
      },
      "safeTransferFrom(address,address,uint256,bytes)": {
        "details": "See {IERC721-safeTransferFrom}."
      },
      "setApprovalForAll(address,bool)": {
        "details": "See {IERC721-setApprovalForAll}."
      },
      "supportsInterface(bytes4)": {
        "details": "See {IERC165-supportsInterface}."
      },
      "symbol()": {
        "details": "See {IERC721Metadata-symbol}."
      },
      "transferFrom(address,address,uint256)": {
        "details": "See {IERC721-transferFrom}."
      }
    },
    "version": 1
  },
  "userdoc": {
    "kind": "user",
    "methods": {},
    "version": 1
  },
  "storageLayout": {
    "storage": [
      {
        "astId": 191,
        "contract": "contracts/Raffle.sol:Raffle",
        "label": "_name",
        "offset": 0,
        "slot": "0",
        "type": "t_string_storage"
      },
      {
        "astId": 193,
        "contract": "contracts/Raffle.sol:Raffle",
        "label": "_symbol",
        "offset": 0,
        "slot": "1",
        "type": "t_string_storage"
      },
      {
        "astId": 197,
        "contract": "contracts/Raffle.sol:Raffle",
        "label": "_owners",
        "offset": 0,
        "slot": "2",
        "type": "t_mapping(t_uint256,t_address)"
      },
      {
        "astId": 201,
        "contract": "contracts/Raffle.sol:Raffle",
        "label": "_balances",
        "offset": 0,
        "slot": "3",
        "type": "t_mapping(t_address,t_uint256)"
      },
      {
        "astId": 205,
        "contract": "contracts/Raffle.sol:Raffle",
        "label": "_tokenApprovals",
        "offset": 0,
        "slot": "4",
        "type": "t_mapping(t_uint256,t_address)"
      },
      {
        "astId": 211,
        "contract": "contracts/Raffle.sol:Raffle",
        "label": "_operatorApprovals",
        "offset": 0,
        "slot": "5",
        "type": "t_mapping(t_address,t_mapping(t_address,t_bool))"
      },
      {
        "astId": 1821,
        "contract": "contracts/Raffle.sol:Raffle",
        "label": "s_players",
        "offset": 0,
        "slot": "6",
        "type": "t_array(t_address_payable)dyn_storage"
      },
      {
        "astId": 1823,
        "contract": "contracts/Raffle.sol:Raffle",
        "label": "s_recentWinner",
        "offset": 0,
        "slot": "7",
        "type": "t_address"
      },
      {
        "astId": 1825,
        "contract": "contracts/Raffle.sol:Raffle",
        "label": "s_lastTimestamp",
        "offset": 0,
        "slot": "8",
        "type": "t_uint256"
      },
      {
        "astId": 1827,
        "contract": "contracts/Raffle.sol:Raffle",
        "label": "s_interval",
        "offset": 0,
        "slot": "9",
        "type": "t_uint256"
      },
      {
        "astId": 1854,
        "contract": "contracts/Raffle.sol:Raffle",
        "label": "s_raffleState",
        "offset": 0,
        "slot": "10",
        "type": "t_enum(RaffleState)1802"
      }
    ],
    "types": {
      "t_address": {
        "encoding": "inplace",
        "label": "address",
        "numberOfBytes": "20"
      },
      "t_address_payable": {
        "encoding": "inplace",
        "label": "address payable",
        "numberOfBytes": "20"
      },
      "t_array(t_address_payable)dyn_storage": {
        "base": "t_address_payable",
        "encoding": "dynamic_array",
        "label": "address payable[]",
        "numberOfBytes": "32"
      },
      "t_bool": {
        "encoding": "inplace",
        "label": "bool",
        "numberOfBytes": "1"
      },
      "t_enum(RaffleState)1802": {
        "encoding": "inplace",
        "label": "enum Raffle.RaffleState",
        "numberOfBytes": "1"
      },
      "t_mapping(t_address,t_bool)": {
        "encoding": "mapping",
        "key": "t_address",
        "label": "mapping(address => bool)",
        "numberOfBytes": "32",
        "value": "t_bool"
      },
      "t_mapping(t_address,t_mapping(t_address,t_bool))": {
        "encoding": "mapping",
        "key": "t_address",
        "label": "mapping(address => mapping(address => bool))",
        "numberOfBytes": "32",
        "value": "t_mapping(t_address,t_bool)"
      },
      "t_mapping(t_address,t_uint256)": {
        "encoding": "mapping",
        "key": "t_address",
        "label": "mapping(address => uint256)",
        "numberOfBytes": "32",
        "value": "t_uint256"
      },
      "t_mapping(t_uint256,t_address)": {
        "encoding": "mapping",
        "key": "t_uint256",
        "label": "mapping(uint256 => address)",
        "numberOfBytes": "32",
        "value": "t_address"
      },
      "t_string_storage": {
        "encoding": "bytes",
        "label": "string",
        "numberOfBytes": "32"
      },
      "t_uint256": {
        "encoding": "inplace",
        "label": "uint256",
        "numberOfBytes": "32"
      }
    }
  }
}